{
  "_format": "hh-sol-artifact-1",
  "contractName": "AuthenticationContract",
  "sourceName": "contracts/userAuth.sol",
  "abi": [
    {
      "inputs": [],
      "stateMutability": "nonpayable",
      "type": "constructor"
    },
    {
      "anonymous": false,
      "inputs": [
        {
          "indexed": false,
          "internalType": "address",
          "name": "newAdmin",
          "type": "address"
        },
        {
          "indexed": false,
          "internalType": "address",
          "name": "addingAdmin",
          "type": "address"
        }
      ],
      "name": "AdminAdded",
      "type": "event"
    },
    {
      "anonymous": false,
      "inputs": [
        {
          "indexed": false,
          "internalType": "address",
          "name": "newAdmin",
          "type": "address"
        },
        {
          "indexed": false,
          "internalType": "address",
          "name": "deletingAdmin",
          "type": "address"
        }
      ],
      "name": "AdminDeleted",
      "type": "event"
    },
    {
      "anonymous": false,
      "inputs": [
        {
          "indexed": false,
          "internalType": "address",
          "name": "user",
          "type": "address"
        },
        {
          "indexed": false,
          "internalType": "address",
          "name": "device",
          "type": "address"
        },
        {
          "indexed": false,
          "internalType": "address",
          "name": "fog",
          "type": "address"
        }
      ],
      "name": "Authenticated",
      "type": "event"
    },
    {
      "anonymous": false,
      "inputs": [
        {
          "indexed": false,
          "internalType": "address",
          "name": "device",
          "type": "address"
        },
        {
          "indexed": false,
          "internalType": "address",
          "name": "fog",
          "type": "address"
        },
        {
          "indexed": false,
          "internalType": "address",
          "name": "sender",
          "type": "address"
        }
      ],
      "name": "DeviceDoesnotExist",
      "type": "event"
    },
    {
      "anonymous": false,
      "inputs": [
        {
          "indexed": false,
          "internalType": "address",
          "name": "fog",
          "type": "address"
        },
        {
          "indexed": false,
          "internalType": "address",
          "name": "deletingAdmin",
          "type": "address"
        }
      ],
      "name": "FogDeviceAllMappingDeleted",
      "type": "event"
    },
    {
      "anonymous": false,
      "inputs": [
        {
          "indexed": false,
          "internalType": "address",
          "name": "fog",
          "type": "address"
        },
        {
          "indexed": false,
          "internalType": "address",
          "name": "device",
          "type": "address"
        },
        {
          "indexed": false,
          "internalType": "address",
          "name": "addingAdmin",
          "type": "address"
        }
      ],
      "name": "FogDeviceMappingAdded",
      "type": "event"
    },
    {
      "anonymous": false,
      "inputs": [
        {
          "indexed": false,
          "internalType": "address",
          "name": "user",
          "type": "address"
        }
      ],
      "name": "NotAuthenticated",
      "type": "event"
    },
    {
      "anonymous": false,
      "inputs": [
        {
          "indexed": false,
          "internalType": "bytes32",
          "name": "uid",
          "type": "bytes32"
        },
        {
          "indexed": false,
          "internalType": "address",
          "name": "user",
          "type": "address"
        },
        {
          "indexed": false,
          "internalType": "address",
          "name": "device",
          "type": "address"
        },
        {
          "indexed": false,
          "internalType": "address",
          "name": "fog",
          "type": "address"
        }
      ],
      "name": "TokenCreated",
      "type": "event"
    },
    {
      "anonymous": false,
      "inputs": [
        {
          "indexed": false,
          "internalType": "address",
          "name": "user",
          "type": "address"
        },
        {
          "indexed": false,
          "internalType": "address",
          "name": "deletingAdmin",
          "type": "address"
        }
      ],
      "name": "UserDeviceAllMappingDeleted",
      "type": "event"
    },
    {
      "anonymous": false,
      "inputs": [
        {
          "indexed": false,
          "internalType": "address",
          "name": "user",
          "type": "address"
        },
        {
          "indexed": false,
          "internalType": "address",
          "name": "device",
          "type": "address"
        },
        {
          "indexed": false,
          "internalType": "address",
          "name": "addingAdmin",
          "type": "address"
        },
        {
          "indexed": false,
          "internalType": "address",
          "name": "fog",
          "type": "address"
        }
      ],
      "name": "UserDeviceMappingAdded",
      "type": "event"
    },
    {
      "inputs": [
        {
          "internalType": "uint256",
          "name": "",
          "type": "uint256"
        }
      ],
      "name": "Tokens",
      "outputs": [
        {
          "internalType": "bytes32",
          "name": "UID",
          "type": "bytes32"
        },
        {
          "internalType": "address",
          "name": "user",
          "type": "address"
        },
        {
          "internalType": "address",
          "name": "dev",
          "type": "address"
        },
        {
          "internalType": "address",
          "name": "fog",
          "type": "address"
        }
      ],
      "stateMutability": "view",
      "type": "function"
    },
    {
      "inputs": [
        {
          "internalType": "address",
          "name": "newAdmin",
          "type": "address"
        }
      ],
      "name": "addAdmin",
      "outputs": [],
      "stateMutability": "nonpayable",
      "type": "function"
    },
    {
      "inputs": [
        {
          "internalType": "address",
          "name": "add",
          "type": "address"
        },
        {
          "internalType": "string",
          "name": "name",
          "type": "string"
        }
      ],
      "name": "addAdminv2",
      "outputs": [],
      "stateMutability": "nonpayable",
      "type": "function"
    },
    {
      "inputs": [
        {
          "internalType": "address",
          "name": "fog",
          "type": "address"
        },
        {
          "internalType": "address",
          "name": "device",
          "type": "address"
        }
      ],
      "name": "addDeviceFogMapping",
      "outputs": [],
      "stateMutability": "nonpayable",
      "type": "function"
    },
    {
      "inputs": [
        {
          "internalType": "address",
          "name": "user",
          "type": "address"
        },
        {
          "internalType": "address",
          "name": "device",
          "type": "address"
        },
        {
          "internalType": "address",
          "name": "fog",
          "type": "address"
        },
        {
          "internalType": "string",
          "name": "name",
          "type": "string"
        },
        {
          "internalType": "string",
          "name": "user_name",
          "type": "string"
        }
      ],
      "name": "addUserDeviceMapping",
      "outputs": [],
      "stateMutability": "nonpayable",
      "type": "function"
    },
    {
      "inputs": [
        {
          "internalType": "address",
          "name": "admin",
          "type": "address"
        }
      ],
      "name": "delAdmin",
      "outputs": [],
      "stateMutability": "nonpayable",
      "type": "function"
    },
    {
      "inputs": [
        {
          "internalType": "address",
          "name": "fog",
          "type": "address"
        }
      ],
      "name": "delDev",
      "outputs": [],
      "stateMutability": "nonpayable",
      "type": "function"
    },
    {
      "inputs": [
        {
          "internalType": "address",
          "name": "user",
          "type": "address"
        }
      ],
      "name": "delUser",
      "outputs": [],
      "stateMutability": "nonpayable",
      "type": "function"
    },
    {
      "inputs": [
        {
          "internalType": "address",
          "name": "",
          "type": "address"
        }
      ],
      "name": "device_names",
      "outputs": [
        {
          "internalType": "string",
          "name": "",
          "type": "string"
        }
      ],
      "stateMutability": "view",
      "type": "function"
    },
    {
      "inputs": [
        {
          "internalType": "address",
          "name": "",
          "type": "address"
        },
        {
          "internalType": "uint256",
          "name": "",
          "type": "uint256"
        }
      ],
      "name": "fog_devices",
      "outputs": [
        {
          "internalType": "address",
          "name": "",
          "type": "address"
        }
      ],
      "stateMutability": "view",
      "type": "function"
    },
    {
      "inputs": [],
      "name": "listAdmin",
      "outputs": [
        {
          "components": [
            {
              "internalType": "address",
              "name": "id",
              "type": "address"
            },
            {
              "internalType": "string",
              "name": "name",
              "type": "string"
            }
          ],
          "internalType": "struct AuthenticationContract.Admin[]",
          "name": "",
          "type": "tuple[]"
        }
      ],
      "stateMutability": "view",
      "type": "function"
    },
    {
      "inputs": [
        {
          "internalType": "address",
          "name": "fog",
          "type": "address"
        }
      ],
      "name": "listFogDevices",
      "outputs": [
        {
          "components": [
            {
              "internalType": "address",
              "name": "dev",
              "type": "address"
            },
            {
              "internalType": "address",
              "name": "fog",
              "type": "address"
            },
            {
              "internalType": "string",
              "name": "name",
              "type": "string"
            }
          ],
          "internalType": "struct AuthenticationContract.Devices[]",
          "name": "",
          "type": "tuple[]"
        }
      ],
      "stateMutability": "view",
      "type": "function"
    },
    {
      "inputs": [
        {
          "internalType": "address",
          "name": "device",
          "type": "address"
        },
        {
          "internalType": "address",
          "name": "fog",
          "type": "address"
        }
      ],
      "name": "requestAuthentication",
      "outputs": [],
      "stateMutability": "nonpayable",
      "type": "function"
    },
    {
      "inputs": [
        {
          "internalType": "address",
          "name": "",
          "type": "address"
        }
      ],
      "name": "user_names",
      "outputs": [
        {
          "internalType": "string",
          "name": "",
          "type": "string"
        }
      ],
      "stateMutability": "view",
      "type": "function"
    },
    {
      "inputs": [
        {
          "internalType": "address",
          "name": "",
          "type": "address"
        },
        {
          "internalType": "uint256",
          "name": "",
          "type": "uint256"
        }
      ],
      "name": "users_devices",
      "outputs": [
        {
          "internalType": "address",
          "name": "dev",
          "type": "address"
        },
        {
          "internalType": "address",
          "name": "fog",
          "type": "address"
        },
        {
          "internalType": "string",
          "name": "name",
          "type": "string"
        }
      ],
      "stateMutability": "view",
      "type": "function"
    }
  ],
  "bytecode": "0x60806040526000805534801561001457600080fd5b506001339080600181540180825580915050600190039060005260206000200160009091909190916101000a81548173ffffffffffffffffffffffffffffffffffffffff021916908373ffffffffffffffffffffffffffffffffffffffff1602179055506130f9806100876000396000f3fe608060405234801561001057600080fd5b50600436106100f55760003560e01c80638aca667311610097578063cde29bde11610066578063cde29bde14610299578063de5f311e146102b5578063f371c13d146102e5578063f849f37914610301576100f5565b80638aca6673146101fe578063953c81331461022e578063adcc52e514610261578063c14e0f8b1461027d576100f5565b806359f066fb116100d357806359f066fb1461017a57806362d918551461019657806370480275146101b25780637b618e5b146101ce576100f5565b8063272c4e6c146100fa5780633192c6c914610118578063457112341461014a575b600080fd5b61010261031d565b60405161010f9190612745565b60405180910390f35b610132600480360381019061012d91906127dd565b610464565b60405161014193929190612876565b60405180910390f35b610164600480360381019061015f91906128b4565b610573565b60405161017191906129f3565b60405180910390f35b610194600480360381019061018f91906128b4565b610c10565b005b6101b060048036038101906101ab91906128b4565b610d84565b005b6101cc60048036038101906101c791906128b4565b610fda565b005b6101e860048036038101906101e391906127dd565b611166565b6040516101f59190612a15565b60405180910390f35b610218600480360381019061021391906128b4565b6111b4565b6040516102259190612a30565b60405180910390f35b61024860048036038101906102439190612a52565b611254565b6040516102589493929190612a98565b60405180910390f35b61027b60048036038101906102769190612add565b6112f4565b005b61029760048036038101906102929190612c52565b6114c0565b005b6102b360048036038101906102ae9190612add565b611729565b005b6102cf60048036038101906102ca91906128b4565b611c12565b6040516102dc9190612a30565b60405180910390f35b6102ff60048036038101906102fa9190612cae565b611cb2565b005b61031b600480360381019061031691906128b4565b6121de565b005b60606002805480602002602001604051908101604052809291908181526020016000905b8282101561045b57838290600052602060002090600202016040518060400160405290816000820160009054906101000a900473ffffffffffffffffffffffffffffffffffffffff1673ffffffffffffffffffffffffffffffffffffffff1673ffffffffffffffffffffffffffffffffffffffff1681526020016001820180546103ca90612d90565b80601f01602080910402602001604051908101604052809291908181526020018280546103f690612d90565b80156104435780601f1061041857610100808354040283529160200191610443565b820191906000526020600020905b81548152906001019060200180831161042657829003601f168201915b50505050508152505081526020019060010190610341565b50505050905090565b6005602052816000526040600020818154811061048057600080fd5b9060005260206000209060030201600091509150508060000160009054906101000a900473ffffffffffffffffffffffffffffffffffffffff16908060010160009054906101000a900473ffffffffffffffffffffffffffffffffffffffff16908060020180546104f090612d90565b80601f016020809104026020016040519081016040528092919081815260200182805461051c90612d90565b80156105695780601f1061053e57610100808354040283529160200191610569565b820191906000526020600020905b81548152906001019060200180831161054c57829003601f168201915b5050505050905083565b60606000805b600180549050811015610614576001818154811061059a57610599612dc2565b5b9060005260206000200160009054906101000a900473ffffffffffffffffffffffffffffffffffffffff1673ffffffffffffffffffffffffffffffffffffffff163373ffffffffffffffffffffffffffffffffffffffff1614156106015760019150610614565b808061060c90612e20565b915050610579565b5080610901576000600560003373ffffffffffffffffffffffffffffffffffffffff1673ffffffffffffffffffffffffffffffffffffffff168152602001908152602001600020805480602002602001604051908101604052809291908181526020016000905b828210156107eb57838290600052602060002090600302016040518060600160405290816000820160009054906101000a900473ffffffffffffffffffffffffffffffffffffffff1673ffffffffffffffffffffffffffffffffffffffff1673ffffffffffffffffffffffffffffffffffffffff1681526020016001820160009054906101000a900473ffffffffffffffffffffffffffffffffffffffff1673ffffffffffffffffffffffffffffffffffffffff1673ffffffffffffffffffffffffffffffffffffffff16815260200160028201805461075a90612d90565b80601f016020809104026020016040519081016040528092919081815260200182805461078690612d90565b80156107d35780601f106107a8576101008083540402835291602001916107d3565b820191906000526020600020905b8154815290600101906020018083116107b657829003601f168201915b5050505050815250508152602001906001019061067b565b5050505090506000815167ffffffffffffffff81111561080e5761080d612b27565b5b60405190808252806020026020018201604052801561084757816020015b610834612352565b81526020019060019003908161082c5790505b50905060005b82518110156108f5578573ffffffffffffffffffffffffffffffffffffffff168382815181106108805761087f612dc2565b5b60200260200101516020015173ffffffffffffffffffffffffffffffffffffffff1614156108e2578281815181106108bb576108ba612dc2565b5b60200260200101518282815181106108d6576108d5612dc2565b5b60200260200101819052505b80806108ed90612e20565b91505061084d565b50809350505050610c0b565b6000600660008573ffffffffffffffffffffffffffffffffffffffff1673ffffffffffffffffffffffffffffffffffffffff1681526020019081526020016000208054806020026020016040519081016040528092919081815260200182805480156109c257602002820191906000526020600020905b8160009054906101000a900473ffffffffffffffffffffffffffffffffffffffff1673ffffffffffffffffffffffffffffffffffffffff1681526020019060010190808311610978575b505050505090506000815167ffffffffffffffff8111156109e6576109e5612b27565b5b604051908082528060200260200182016040528015610a1f57816020015b610a0c612352565b815260200190600190039081610a045790505b50905060005b8251811015610c0357828181518110610a4157610a40612dc2565b5b6020026020010151828281518110610a5c57610a5b612dc2565b5b60200260200101516000019073ffffffffffffffffffffffffffffffffffffffff16908173ffffffffffffffffffffffffffffffffffffffff168152505085828281518110610aae57610aad612dc2565b5b60200260200101516020019073ffffffffffffffffffffffffffffffffffffffff16908173ffffffffffffffffffffffffffffffffffffffff168152505060076000848381518110610b0357610b02612dc2565b5b602002602001015173ffffffffffffffffffffffffffffffffffffffff1673ffffffffffffffffffffffffffffffffffffffff1681526020019081526020016000208054610b5090612d90565b80601f0160208091040260200160405190810160405280929190818152602001828054610b7c90612d90565b8015610bc95780601f10610b9e57610100808354040283529160200191610bc9565b820191906000526020600020905b815481529060010190602001808311610bac57829003601f168201915b5050505050828281518110610be157610be0612dc2565b5b6020026020010151604001819052508080610bfb90612e20565b915050610a25565b508093505050505b919050565b6000805b600180549050811015610caf5760018181548110610c3557610c34612dc2565b5b9060005260206000200160009054906101000a900473ffffffffffffffffffffffffffffffffffffffff1673ffffffffffffffffffffffffffffffffffffffff163373ffffffffffffffffffffffffffffffffffffffff161415610c9c5760019150610caf565b8080610ca790612e20565b915050610c14565b5080610cfb576000610cf6576040517f08c379a0000000000000000000000000000000000000000000000000000000008152600401610ced90612edb565b60405180910390fd5b610d80565b600660008373ffffffffffffffffffffffffffffffffffffffff1673ffffffffffffffffffffffffffffffffffffffff1681526020019081526020016000206000610d46919061239f565b7fffba2f5560c54f3e17c0ea6219ffc960702e123fd40f1cc9bf230d08ec5749178233604051610d77929190612efb565b60405180910390a15b5050565b6000805b600180549050811015610e235760018181548110610da957610da8612dc2565b5b9060005260206000200160009054906101000a900473ffffffffffffffffffffffffffffffffffffffff1673ffffffffffffffffffffffffffffffffffffffff163373ffffffffffffffffffffffffffffffffffffffff161415610e105760019150610e23565b8080610e1b90612e20565b915050610d88565b5080610e6f576000610e6a576040517f08c379a0000000000000000000000000000000000000000000000000000000008152600401610e6190612edb565b60405180910390fd5b610fd6565b60026001805490501015610ec3576000610ebe576040517f08c379a0000000000000000000000000000000000000000000000000000000008152600401610eb590612f70565b60405180910390fd5b610fd5565b60005b600180549050811015610fd3578273ffffffffffffffffffffffffffffffffffffffff1660018281548110610efe57610efd612dc2565b5b9060005260206000200160009054906101000a900473ffffffffffffffffffffffffffffffffffffffff1673ffffffffffffffffffffffffffffffffffffffff161415610fc05760018181548110610f5957610f58612dc2565b5b9060005260206000200160006101000a81549073ffffffffffffffffffffffffffffffffffffffff02191690557f6ac01b7aa18a8f6fd542477b7bbab44275bf3d95edf08e9404bb423ef2356da18333604051610fb7929190612efb565b60405180910390a15b8080610fcb90612e20565b915050610ec6565b505b5b5050565b6000805b6001805490508110156110795760018181548110610fff57610ffe612dc2565b5b9060005260206000200160009054906101000a900473ffffffffffffffffffffffffffffffffffffffff1673ffffffffffffffffffffffffffffffffffffffff163373ffffffffffffffffffffffffffffffffffffffff1614156110665760019150611079565b808061107190612e20565b915050610fde565b50806110c55760006110c0576040517f08c379a00000000000000000000000000000000000000000000000000000000081526004016110b790612edb565b60405180910390fd5b611162565b6001829080600181540180825580915050600190039060005260206000200160009091909190916101000a81548173ffffffffffffffffffffffffffffffffffffffff021916908373ffffffffffffffffffffffffffffffffffffffff1602179055507fbf3f493c772c8c283fd124432c2d0f539ab343faa04258fe88e52912d36b102b8233604051611159929190612efb565b60405180910390a15b5050565b6006602052816000526040600020818154811061118257600080fd5b906000526020600020016000915091509054906101000a900473ffffffffffffffffffffffffffffffffffffffff1681565b600460205280600052604060002060009150905080546111d390612d90565b80601f01602080910402602001604051908101604052809291908181526020018280546111ff90612d90565b801561124c5780601f106112215761010080835404028352916020019161124c565b820191906000526020600020905b81548152906001019060200180831161122f57829003601f168201915b505050505081565b6003818154811061126457600080fd5b90600052602060002090600402016000915090508060000154908060010160009054906101000a900473ffffffffffffffffffffffffffffffffffffffff16908060020160009054906101000a900473ffffffffffffffffffffffffffffffffffffffff16908060030160009054906101000a900473ffffffffffffffffffffffffffffffffffffffff16905084565b6000805b600180549050811015611393576001818154811061131957611318612dc2565b5b9060005260206000200160009054906101000a900473ffffffffffffffffffffffffffffffffffffffff1673ffffffffffffffffffffffffffffffffffffffff163373ffffffffffffffffffffffffffffffffffffffff1614156113805760019150611393565b808061138b90612e20565b9150506112f8565b50806113df5760006113da576040517f08c379a00000000000000000000000000000000000000000000000000000000081526004016113d190612edb565b60405180910390fd5b6114bb565b600660008473ffffffffffffffffffffffffffffffffffffffff1673ffffffffffffffffffffffffffffffffffffffff168152602001908152602001600020829080600181540180825580915050600190039060005260206000200160009091909190916101000a81548173ffffffffffffffffffffffffffffffffffffffff021916908373ffffffffffffffffffffffffffffffffffffffff1602179055507f2051d1698438e909aa08ac2773e9a4b87c1c24ae064793b714e81e61896989488383336040516114b293929190612f90565b60405180910390a15b505050565b6000805b60018054905081101561155f57600181815481106114e5576114e4612dc2565b5b9060005260206000200160009054906101000a900473ffffffffffffffffffffffffffffffffffffffff1673ffffffffffffffffffffffffffffffffffffffff163373ffffffffffffffffffffffffffffffffffffffff16141561154c576001915061155f565b808061155790612e20565b9150506114c4565b50806115ab5760006115a6576040517f08c379a000000000000000000000000000000000000000000000000000000000815260040161159d90612edb565b60405180910390fd5b611724565b6001839080600181540180825580915050600190039060005260206000200160009091909190916101000a81548173ffffffffffffffffffffffffffffffffffffffff021916908373ffffffffffffffffffffffffffffffffffffffff1602179055506116166123c0565b83816000019073ffffffffffffffffffffffffffffffffffffffff16908173ffffffffffffffffffffffffffffffffffffffff1681525050828160200181905250600281908060018154018082558091505060019003906000526020600020906002020160009091909190915060008201518160000160006101000a81548173ffffffffffffffffffffffffffffffffffffffff021916908373ffffffffffffffffffffffffffffffffffffffff16021790555060208201518160010190805190602001906116e69291906123f0565b5050507fbf3f493c772c8c283fd124432c2d0f539ab343faa04258fe88e52912d36b102b843360405161171a929190612efb565b60405180910390a1505b505050565b6000805b600660008473ffffffffffffffffffffffffffffffffffffffff1673ffffffffffffffffffffffffffffffffffffffff16815260200190815260200160002080549050811015611842578373ffffffffffffffffffffffffffffffffffffffff16600660008573ffffffffffffffffffffffffffffffffffffffff1673ffffffffffffffffffffffffffffffffffffffff16815260200190815260200160002082815481106117df576117de612dc2565b5b9060005260206000200160009054906101000a900473ffffffffffffffffffffffffffffffffffffffff1673ffffffffffffffffffffffffffffffffffffffff16141561182f5760019150611842565b808061183a90612e20565b91505061172d565b5080611888577f688a3922fdb7052949427bceb2103ae038ecb93352d1d39cab3dde225121845583833360405161187b93929190612f90565b60405180910390a1611c0d565b6000805b600560003373ffffffffffffffffffffffffffffffffffffffff1673ffffffffffffffffffffffffffffffffffffffff168152602001908152602001600020805490508110156119a8578473ffffffffffffffffffffffffffffffffffffffff16600560003373ffffffffffffffffffffffffffffffffffffffff1673ffffffffffffffffffffffffffffffffffffffff168152602001908152602001600020828154811061193e5761193d612dc2565b5b906000526020600020906003020160000160009054906101000a900473ffffffffffffffffffffffffffffffffffffffff1673ffffffffffffffffffffffffffffffffffffffff16141561199557600191506119a8565b80806119a090612e20565b91505061188c565b508015611bcd577fbbf285ab57a06f66efef76aacce8608661908779f200e8087ac79f32c17504213385856040516119e293929190612f90565b60405180910390a1600084843342604051602001611a039493929190613030565b604051602081830303815290604052805190602001209050600360405180608001604052808381526020013373ffffffffffffffffffffffffffffffffffffffff1681526020018773ffffffffffffffffffffffffffffffffffffffff1681526020018673ffffffffffffffffffffffffffffffffffffffff1681525090806001815401808255809150506001900390600052602060002090600402016000909190919091506000820151816000015560208201518160010160006101000a81548173ffffffffffffffffffffffffffffffffffffffff021916908373ffffffffffffffffffffffffffffffffffffffff16021790555060408201518160020160006101000a81548173ffffffffffffffffffffffffffffffffffffffff021916908373ffffffffffffffffffffffffffffffffffffffff16021790555060608201518160030160006101000a81548173ffffffffffffffffffffffffffffffffffffffff021916908373ffffffffffffffffffffffffffffffffffffffff16021790555050507f066cde511de645a3d03ed04069128a6c16fc5bf2d076a748a2acd1e205d3390f81338787604051611bbf9493929190612a98565b60405180910390a150611c0b565b80611c0a577fedc2b9184e4f83d4cc9079ff886f15cd4ebc064df34bb7414aa697c2d5812a5733604051611c019190612a15565b60405180910390a15b5b505b505050565b60076020528060005260406000206000915090508054611c3190612d90565b80601f0160208091040260200160405190810160405280929190818152602001828054611c5d90612d90565b8015611caa5780601f10611c7f57610100808354040283529160200191611caa565b820191906000526020600020905b815481529060010190602001808311611c8d57829003601f168201915b505050505081565b6000805b600180549050811015611d515760018181548110611cd757611cd6612dc2565b5b9060005260206000200160009054906101000a900473ffffffffffffffffffffffffffffffffffffffff1673ffffffffffffffffffffffffffffffffffffffff163373ffffffffffffffffffffffffffffffffffffffff161415611d3e5760019150611d51565b8080611d4990612e20565b915050611cb6565b5080611d9d576000611d98576040517f08c379a0000000000000000000000000000000000000000000000000000000008152600401611d8f90612edb565b60405180910390fd5b6121d6565b6000805b600660008773ffffffffffffffffffffffffffffffffffffffff1673ffffffffffffffffffffffffffffffffffffffff16815260200190815260200160002080549050811015611eb6578673ffffffffffffffffffffffffffffffffffffffff16600660008873ffffffffffffffffffffffffffffffffffffffff1673ffffffffffffffffffffffffffffffffffffffff1681526020019081526020016000208281548110611e5357611e52612dc2565b5b9060005260206000200160009054906101000a900473ffffffffffffffffffffffffffffffffffffffff1673ffffffffffffffffffffffffffffffffffffffff161415611ea35760019150611eb6565b8080611eae90612e20565b915050611da1565b50600080600460008a73ffffffffffffffffffffffffffffffffffffffff1673ffffffffffffffffffffffffffffffffffffffff1681526020019081526020016000208054611f0490612d90565b80601f0160208091040260200160405190810160405280929190818152602001828054611f3090612d90565b8015611f7d5780601f10611f5257610100808354040283529160200191611f7d565b820191906000526020600020905b815481529060010190602001808311611f6057829003601f168201915b5050505050905060008190506000815114611f9757600192505b83156121955782611ff75785600460008c73ffffffffffffffffffffffffffffffffffffffff1673ffffffffffffffffffffffffffffffffffffffff1681526020019081526020016000209080519060200190611ff59291906123f0565b505b600560008b73ffffffffffffffffffffffffffffffffffffffff1673ffffffffffffffffffffffffffffffffffffffff16815260200190815260200160002060405180606001604052808b73ffffffffffffffffffffffffffffffffffffffff1681526020018a73ffffffffffffffffffffffffffffffffffffffff16815260200189815250908060018154018082558091505060019003906000526020600020906003020160009091909190915060008201518160000160006101000a81548173ffffffffffffffffffffffffffffffffffffffff021916908373ffffffffffffffffffffffffffffffffffffffff16021790555060208201518160010160006101000a81548173ffffffffffffffffffffffffffffffffffffffff021916908373ffffffffffffffffffffffffffffffffffffffff16021790555060408201518160020190805190602001906121509291906123f0565b5050507fbe625affc65a6f3a8c8e7603b6880d4c2cfb4fbee3c53135cdb094d2c7afb8158a8a338b604051612188949392919061307e565b60405180910390a16121d1565b7f688a3922fdb7052949427bceb2103ae038ecb93352d1d39cab3dde22512184558989336040516121c893929190612f90565b60405180910390a15b505050505b505050505050565b6000805b60018054905081101561227d576001818154811061220357612202612dc2565b5b9060005260206000200160009054906101000a900473ffffffffffffffffffffffffffffffffffffffff1673ffffffffffffffffffffffffffffffffffffffff163373ffffffffffffffffffffffffffffffffffffffff16141561226a576001915061227d565b808061227590612e20565b9150506121e2565b50806122c95760006122c4576040517f08c379a00000000000000000000000000000000000000000000000000000000081526004016122bb90612edb565b60405180910390fd5b61234e565b600560008373ffffffffffffffffffffffffffffffffffffffff1673ffffffffffffffffffffffffffffffffffffffff16815260200190815260200160002060006123149190612476565b7fd583bac0996795f46c61a719ca6954d32d592a449d37914310382ab0d2f645568233604051612345929190612efb565b60405180910390a15b5050565b6040518060600160405280600073ffffffffffffffffffffffffffffffffffffffff168152602001600073ffffffffffffffffffffffffffffffffffffffff168152602001606081525090565b50805460008255906000526020600020908101906123bd919061249a565b50565b6040518060400160405280600073ffffffffffffffffffffffffffffffffffffffff168152602001606081525090565b8280546123fc90612d90565b90600052602060002090601f01602090048101928261241e5760008555612465565b82601f1061243757805160ff1916838001178555612465565b82800160010185558215612465579182015b82811115612464578251825591602001919060010190612449565b5b509050612472919061249a565b5090565b508054600082556003029060005260206000209081019061249791906124b7565b50565b5b808211156124b357600081600090555060010161249b565b5090565b5b8082111561252857600080820160006101000a81549073ffffffffffffffffffffffffffffffffffffffff02191690556001820160006101000a81549073ffffffffffffffffffffffffffffffffffffffff021916905560028201600061251f919061252c565b506003016124b8565b5090565b50805461253890612d90565b6000825580601f1061254a5750612569565b601f016020900490600052602060002090810190612568919061249a565b5b50565b600081519050919050565b600082825260208201905092915050565b6000819050602082019050919050565b600073ffffffffffffffffffffffffffffffffffffffff82169050919050565b60006125c382612598565b9050919050565b6125d3816125b8565b82525050565b600081519050919050565b600082825260208201905092915050565b60005b838110156126135780820151818401526020810190506125f8565b83811115612622576000848401525b50505050565b6000601f19601f8301169050919050565b6000612644826125d9565b61264e81856125e4565b935061265e8185602086016125f5565b61266781612628565b840191505092915050565b600060408301600083015161268a60008601826125ca565b50602083015184820360208601526126a28282612639565b9150508091505092915050565b60006126bb8383612672565b905092915050565b6000602082019050919050565b60006126db8261256c565b6126e58185612577565b9350836020820285016126f785612588565b8060005b85811015612733578484038952815161271485826126af565b945061271f836126c3565b925060208a019950506001810190506126fb565b50829750879550505050505092915050565b6000602082019050818103600083015261275f81846126d0565b905092915050565b6000604051905090565b600080fd5b600080fd5b612784816125b8565b811461278f57600080fd5b50565b6000813590506127a18161277b565b92915050565b6000819050919050565b6127ba816127a7565b81146127c557600080fd5b50565b6000813590506127d7816127b1565b92915050565b600080604083850312156127f4576127f3612771565b5b600061280285828601612792565b9250506020612813858286016127c8565b9150509250929050565b612826816125b8565b82525050565b600082825260208201905092915050565b6000612848826125d9565b612852818561282c565b93506128628185602086016125f5565b61286b81612628565b840191505092915050565b600060608201905061288b600083018661281d565b612898602083018561281d565b81810360408301526128aa818461283d565b9050949350505050565b6000602082840312156128ca576128c9612771565b5b60006128d884828501612792565b91505092915050565b600081519050919050565b600082825260208201905092915050565b6000819050602082019050919050565b600060608301600083015161292560008601826125ca565b50602083015161293860208601826125ca565b50604083015184820360408601526129508282612639565b9150508091505092915050565b6000612969838361290d565b905092915050565b6000602082019050919050565b6000612989826128e1565b61299381856128ec565b9350836020820285016129a5856128fd565b8060005b858110156129e157848403895281516129c2858261295d565b94506129cd83612971565b925060208a019950506001810190506129a9565b50829750879550505050505092915050565b60006020820190508181036000830152612a0d818461297e565b905092915050565b6000602082019050612a2a600083018461281d565b92915050565b60006020820190508181036000830152612a4a818461283d565b905092915050565b600060208284031215612a6857612a67612771565b5b6000612a76848285016127c8565b91505092915050565b6000819050919050565b612a9281612a7f565b82525050565b6000608082019050612aad6000830187612a89565b612aba602083018661281d565b612ac7604083018561281d565b612ad4606083018461281d565b95945050505050565b60008060408385031215612af457612af3612771565b5b6000612b0285828601612792565b9250506020612b1385828601612792565b9150509250929050565b600080fd5b600080fd5b7f4e487b7100000000000000000000000000000000000000000000000000000000600052604160045260246000fd5b612b5f82612628565b810181811067ffffffffffffffff82111715612b7e57612b7d612b27565b5b80604052505050565b6000612b91612767565b9050612b9d8282612b56565b919050565b600067ffffffffffffffff821115612bbd57612bbc612b27565b5b612bc682612628565b9050602081019050919050565b82818337600083830152505050565b6000612bf5612bf084612ba2565b612b87565b905082815260208101848484011115612c1157612c10612b22565b5b612c1c848285612bd3565b509392505050565b600082601f830112612c3957612c38612b1d565b5b8135612c49848260208601612be2565b91505092915050565b60008060408385031215612c6957612c68612771565b5b6000612c7785828601612792565b925050602083013567ffffffffffffffff811115612c9857612c97612776565b5b612ca485828601612c24565b9150509250929050565b600080600080600060a08688031215612cca57612cc9612771565b5b6000612cd888828901612792565b9550506020612ce988828901612792565b9450506040612cfa88828901612792565b935050606086013567ffffffffffffffff811115612d1b57612d1a612776565b5b612d2788828901612c24565b925050608086013567ffffffffffffffff811115612d4857612d47612776565b5b612d5488828901612c24565b9150509295509295909350565b7f4e487b7100000000000000000000000000000000000000000000000000000000600052602260045260246000fd5b60006002820490506001821680612da857607f821691505b60208210811415612dbc57612dbb612d61565b5b50919050565b7f4e487b7100000000000000000000000000000000000000000000000000000000600052603260045260246000fd5b7f4e487b7100000000000000000000000000000000000000000000000000000000600052601160045260246000fd5b6000612e2b826127a7565b91507fffffffffffffffffffffffffffffffffffffffffffffffffffffffffffffffff821415612e5e57612e5d612df1565b5b600182019050919050565b7f4f6e6c792061646d696e732063616e206d6f64696679207468697320636f6e7460008201527f7261637400000000000000000000000000000000000000000000000000000000602082015250565b6000612ec560248361282c565b9150612ed082612e69565b604082019050919050565b60006020820190508181036000830152612ef481612eb8565b9050919050565b6000604082019050612f10600083018561281d565b612f1d602083018461281d565b9392505050565b7f596f752063616e27742064656c65746520746865206c6173742061646d696e00600082015250565b6000612f5a601f8361282c565b9150612f6582612f24565b602082019050919050565b60006020820190508181036000830152612f8981612f4d565b9050919050565b6000606082019050612fa5600083018661281d565b612fb2602083018561281d565b612fbf604083018461281d565b949350505050565b60008160601b9050919050565b6000612fdf82612fc7565b9050919050565b6000612ff182612fd4565b9050919050565b613009613004826125b8565b612fe6565b82525050565b6000819050919050565b61302a613025826127a7565b61300f565b82525050565b600061303c8287612ff8565b60148201915061304c8286612ff8565b60148201915061305c8285612ff8565b60148201915061306c8284613019565b60208201915081905095945050505050565b6000608082019050613093600083018761281d565b6130a0602083018661281d565b6130ad604083018561281d565b6130ba606083018461281d565b9594505050505056fea26469706673582212204298d4a04d49001db466bcbd8e295e5faffc2051a43b27ed4663a611ba37c52564736f6c63430008090033",
  "linkReferences": {},
  "deployedLinkReferences": {}
}