{
  "_format": "hh-sol-artifact-1",
  "contractName": "AuthenticationContract",
  "sourceName": "contracts/userAuth.sol",
  "abi": [
    {
      "inputs": [],
      "stateMutability": "nonpayable",
      "type": "constructor"
    },
    {
      "anonymous": false,
      "inputs": [
        {
          "indexed": false,
          "internalType": "address",
          "name": "newAdmin",
          "type": "address"
        },
        {
          "indexed": false,
          "internalType": "address",
          "name": "addingAdmin",
          "type": "address"
        }
      ],
      "name": "AdminAdded",
      "type": "event"
    },
    {
      "anonymous": false,
      "inputs": [
        {
          "indexed": false,
          "internalType": "address",
          "name": "newAdmin",
          "type": "address"
        },
        {
          "indexed": false,
          "internalType": "address",
          "name": "deletingAdmin",
          "type": "address"
        }
      ],
      "name": "AdminDeleted",
      "type": "event"
    },
    {
      "anonymous": false,
      "inputs": [
        {
          "indexed": false,
          "internalType": "address",
          "name": "user",
          "type": "address"
        },
        {
          "indexed": false,
          "internalType": "address",
          "name": "device",
          "type": "address"
        },
        {
          "indexed": false,
          "internalType": "address",
          "name": "fog",
          "type": "address"
        }
      ],
      "name": "Authenticated",
      "type": "event"
    },
    {
      "anonymous": false,
      "inputs": [
        {
          "indexed": false,
          "internalType": "address",
          "name": "device",
          "type": "address"
        },
        {
          "indexed": false,
          "internalType": "address",
          "name": "fog",
          "type": "address"
        },
        {
          "indexed": false,
          "internalType": "address",
          "name": "sender",
          "type": "address"
        }
      ],
      "name": "DeviceDoesnotExist",
      "type": "event"
    },
    {
      "anonymous": false,
      "inputs": [
        {
          "indexed": false,
          "internalType": "address",
          "name": "fog",
          "type": "address"
        },
        {
          "indexed": false,
          "internalType": "address",
          "name": "deletingAdmin",
          "type": "address"
        }
      ],
      "name": "FogDeviceAllMappingDeleted",
      "type": "event"
    },
    {
      "anonymous": false,
      "inputs": [
        {
          "indexed": false,
          "internalType": "address",
          "name": "fog",
          "type": "address"
        },
        {
          "indexed": false,
          "internalType": "address",
          "name": "device",
          "type": "address"
        },
        {
          "indexed": false,
          "internalType": "address",
          "name": "addingAdmin",
          "type": "address"
        }
      ],
      "name": "FogDeviceMappingAdded",
      "type": "event"
    },
    {
      "anonymous": false,
      "inputs": [
        {
          "indexed": false,
          "internalType": "address",
          "name": "user",
          "type": "address"
        }
      ],
      "name": "NotAuthenticated",
      "type": "event"
    },
    {
      "anonymous": false,
      "inputs": [
        {
          "indexed": false,
          "internalType": "bytes32",
          "name": "uid",
          "type": "bytes32"
        },
        {
          "indexed": false,
          "internalType": "address",
          "name": "user",
          "type": "address"
        },
        {
          "indexed": false,
          "internalType": "address",
          "name": "device",
          "type": "address"
        },
        {
          "indexed": false,
          "internalType": "address",
          "name": "fog",
          "type": "address"
        }
      ],
      "name": "TokenCreated",
      "type": "event"
    },
    {
      "anonymous": false,
      "inputs": [
        {
          "indexed": false,
          "internalType": "address",
          "name": "user",
          "type": "address"
        },
        {
          "indexed": false,
          "internalType": "address",
          "name": "deletingAdmin",
          "type": "address"
        }
      ],
      "name": "UserDeviceAllMappingDeleted",
      "type": "event"
    },
    {
      "anonymous": false,
      "inputs": [
        {
          "indexed": false,
          "internalType": "address",
          "name": "user",
          "type": "address"
        },
        {
          "indexed": false,
          "internalType": "address",
          "name": "device",
          "type": "address"
        },
        {
          "indexed": false,
          "internalType": "address",
          "name": "addingAdmin",
          "type": "address"
        },
        {
          "indexed": false,
          "internalType": "address",
          "name": "fog",
          "type": "address"
        }
      ],
      "name": "UserDeviceMappingAdded",
      "type": "event"
    },
    {
      "inputs": [
        {
          "internalType": "uint256",
          "name": "",
          "type": "uint256"
        }
      ],
      "name": "Tokens",
      "outputs": [
        {
          "internalType": "bytes32",
          "name": "UID",
          "type": "bytes32"
        },
        {
          "internalType": "address",
          "name": "user",
          "type": "address"
        },
        {
          "internalType": "address",
          "name": "dev",
          "type": "address"
        },
        {
          "internalType": "address",
          "name": "fog",
          "type": "address"
        }
      ],
      "stateMutability": "view",
      "type": "function"
    },
    {
      "inputs": [
        {
          "internalType": "address",
          "name": "newAdmin",
          "type": "address"
        }
      ],
      "name": "addAdmin",
      "outputs": [],
      "stateMutability": "nonpayable",
      "type": "function"
    },
    {
      "inputs": [
        {
          "internalType": "address",
          "name": "add",
          "type": "address"
        },
        {
          "internalType": "bytes32",
          "name": "name",
          "type": "bytes32"
        }
      ],
      "name": "addAdminv2",
      "outputs": [],
      "stateMutability": "nonpayable",
      "type": "function"
    },
    {
      "inputs": [
        {
          "internalType": "address",
          "name": "fog",
          "type": "address"
        },
        {
          "internalType": "address",
          "name": "device",
          "type": "address"
        }
      ],
      "name": "addDeviceFogMapping",
      "outputs": [],
      "stateMutability": "nonpayable",
      "type": "function"
    },
    {
      "inputs": [
        {
          "internalType": "address",
          "name": "user",
          "type": "address"
        },
        {
          "internalType": "address",
          "name": "device",
          "type": "address"
        },
        {
          "internalType": "address",
          "name": "fog",
          "type": "address"
        },
        {
          "internalType": "bytes32",
          "name": "name",
          "type": "bytes32"
        },
        {
          "internalType": "bytes32",
          "name": "user_name",
          "type": "bytes32"
        }
      ],
      "name": "addUserDeviceMapping",
      "outputs": [],
      "stateMutability": "nonpayable",
      "type": "function"
    },
    {
      "inputs": [
        {
          "internalType": "address",
          "name": "admin",
          "type": "address"
        }
      ],
      "name": "delAdmin",
      "outputs": [],
      "stateMutability": "nonpayable",
      "type": "function"
    },
    {
      "inputs": [
        {
          "internalType": "address",
          "name": "fog",
          "type": "address"
        }
      ],
      "name": "delDev",
      "outputs": [],
      "stateMutability": "nonpayable",
      "type": "function"
    },
    {
      "inputs": [
        {
          "internalType": "address",
          "name": "user",
          "type": "address"
        }
      ],
      "name": "delUser",
      "outputs": [],
      "stateMutability": "nonpayable",
      "type": "function"
    },
    {
      "inputs": [
        {
          "internalType": "address",
          "name": "",
          "type": "address"
        }
      ],
      "name": "device_names",
      "outputs": [
        {
          "internalType": "bytes32",
          "name": "",
          "type": "bytes32"
        }
      ],
      "stateMutability": "view",
      "type": "function"
    },
    {
      "inputs": [
        {
          "internalType": "address",
          "name": "",
          "type": "address"
        },
        {
          "internalType": "uint256",
          "name": "",
          "type": "uint256"
        }
      ],
      "name": "fog_devices",
      "outputs": [
        {
          "internalType": "address",
          "name": "",
          "type": "address"
        }
      ],
      "stateMutability": "view",
      "type": "function"
    },
    {
      "inputs": [
        {
          "internalType": "address",
          "name": "fog",
          "type": "address"
        }
      ],
      "name": "listFogDevices",
      "outputs": [
        {
          "components": [
            {
              "internalType": "address",
              "name": "dev",
              "type": "address"
            },
            {
              "internalType": "address",
              "name": "fog",
              "type": "address"
            },
            {
              "internalType": "bytes32",
              "name": "name",
              "type": "bytes32"
            }
          ],
          "internalType": "struct AuthenticationContract.Devices[]",
          "name": "",
          "type": "tuple[]"
        }
      ],
      "stateMutability": "view",
      "type": "function"
    },
    {
      "inputs": [
        {
          "internalType": "address",
          "name": "device",
          "type": "address"
        },
        {
          "internalType": "address",
          "name": "fog",
          "type": "address"
        }
      ],
      "name": "requestAuthentication",
      "outputs": [],
      "stateMutability": "nonpayable",
      "type": "function"
    },
    {
      "inputs": [
        {
          "internalType": "address",
          "name": "",
          "type": "address"
        }
      ],
      "name": "user_names",
      "outputs": [
        {
          "internalType": "bytes32",
          "name": "",
          "type": "bytes32"
        }
      ],
      "stateMutability": "view",
      "type": "function"
    },
    {
      "inputs": [
        {
          "internalType": "address",
          "name": "",
          "type": "address"
        },
        {
          "internalType": "uint256",
          "name": "",
          "type": "uint256"
        }
      ],
      "name": "users_devices",
      "outputs": [
        {
          "internalType": "address",
          "name": "dev",
          "type": "address"
        },
        {
          "internalType": "address",
          "name": "fog",
          "type": "address"
        },
        {
          "internalType": "bytes32",
          "name": "name",
          "type": "bytes32"
        }
      ],
      "stateMutability": "view",
      "type": "function"
    }
  ],
  "bytecode": "0x60806040526000805534801561001457600080fd5b506001339080600181540180825580915050600190039060005260206000200160009091909190916101000a81548173ffffffffffffffffffffffffffffffffffffffff021916908373ffffffffffffffffffffffffffffffffffffffff1602179055506127e1806100876000396000f3fe608060405234801561001057600080fd5b50600436106100ea5760003560e01c80638aca66731161008c578063cde29bde11610066578063cde29bde14610270578063de5f311e1461028c578063f849f379146102bc578063fb966c13146102d8576100ea565b80638aca6673146101f1578063953c813314610221578063adcc52e514610254576100ea565b806359f066fb116100c857806359f066fb1461016d57806362d918551461018957806370480275146101a55780637b618e5b146101c1576100ea565b80633192c6c9146100ef57806338df166d14610121578063457112341461013d575b600080fd5b6101096004803603810190610104919061209e565b6102f4565b60405161011893929190612106565b60405180910390f35b61013b60048036038101906101369190612169565b61037b565b005b610157600480360381019061015291906121e4565b610831565b6040516101649190612320565b60405180910390f35b610187600480360381019061018291906121e4565b610dbf565b005b6101a3600480360381019061019e91906121e4565b610f33565b005b6101bf60048036038101906101ba91906121e4565b611189565b005b6101db60048036038101906101d6919061209e565b611315565b6040516101e89190612342565b60405180910390f35b61020b600480360381019061020691906121e4565b611363565b604051610218919061235d565b60405180910390f35b61023b60048036038101906102369190612378565b61137b565b60405161024b94939291906123a5565b60405180910390f35b61026e600480360381019061026991906123ea565b61141b565b005b61028a600480360381019061028591906123ea565b6115e7565b005b6102a660048036038101906102a191906121e4565b611ad0565b6040516102b3919061235d565b60405180910390f35b6102d660048036038101906102d191906121e4565b611ae8565b005b6102f260048036038101906102ed919061242a565b611c5c565b005b6005602052816000526040600020818154811061031057600080fd5b9060005260206000209060030201600091509150508060000160009054906101000a900473ffffffffffffffffffffffffffffffffffffffff16908060010160009054906101000a900473ffffffffffffffffffffffffffffffffffffffff16908060020154905083565b6000805b60018054905081101561041a57600181815481106103a05761039f61246a565b5b9060005260206000200160009054906101000a900473ffffffffffffffffffffffffffffffffffffffff1673ffffffffffffffffffffffffffffffffffffffff163373ffffffffffffffffffffffffffffffffffffffff161415610407576001915061041a565b8080610412906124c8565b91505061037f565b5080610466576000610461576040517f08c379a000000000000000000000000000000000000000000000000000000000815260040161045890612594565b60405180910390fd5b610829565b6000805b600660008773ffffffffffffffffffffffffffffffffffffffff1673ffffffffffffffffffffffffffffffffffffffff1681526020019081526020016000208054905081101561057f578673ffffffffffffffffffffffffffffffffffffffff16600660008873ffffffffffffffffffffffffffffffffffffffff1673ffffffffffffffffffffffffffffffffffffffff168152602001908152602001600020828154811061051c5761051b61246a565b5b9060005260206000200160009054906101000a900473ffffffffffffffffffffffffffffffffffffffff1673ffffffffffffffffffffffffffffffffffffffff16141561056c576001915061057f565b8080610577906124c8565b91505061046a565b50600080600460008a73ffffffffffffffffffffffffffffffffffffffff1673ffffffffffffffffffffffffffffffffffffffff168152602001908152602001600020549050600060f81b816000602081106105de576105dd61246a565b5b1a60f81b7effffffffffffffffffffffffffffffffffffffffffffffffffffffffffffff19161461060e57600191505b82156107e9578161065e5784600460008b73ffffffffffffffffffffffffffffffffffffffff1673ffffffffffffffffffffffffffffffffffffffff168152602001908152602001600020819055505b600560008a73ffffffffffffffffffffffffffffffffffffffff1673ffffffffffffffffffffffffffffffffffffffff16815260200190815260200160002060405180606001604052808a73ffffffffffffffffffffffffffffffffffffffff1681526020018973ffffffffffffffffffffffffffffffffffffffff16815260200188815250908060018154018082558091505060019003906000526020600020906003020160009091909190915060008201518160000160006101000a81548173ffffffffffffffffffffffffffffffffffffffff021916908373ffffffffffffffffffffffffffffffffffffffff16021790555060208201518160010160006101000a81548173ffffffffffffffffffffffffffffffffffffffff021916908373ffffffffffffffffffffffffffffffffffffffff1602179055506040820151816002015550507fbe625affc65a6f3a8c8e7603b6880d4c2cfb4fbee3c53135cdb094d2c7afb8158989338a6040516107dc94939291906125b4565b60405180910390a1610825565b7f688a3922fdb7052949427bceb2103ae038ecb93352d1d39cab3dde225121845588883360405161081c939291906125f9565b60405180910390a15b5050505b505050505050565b60606000805b6001805490508110156108d257600181815481106108585761085761246a565b5b9060005260206000200160009054906101000a900473ffffffffffffffffffffffffffffffffffffffff1673ffffffffffffffffffffffffffffffffffffffff163373ffffffffffffffffffffffffffffffffffffffff1614156108bf57600191506108d2565b80806108ca906124c8565b915050610837565b5080610b37576000600560003373ffffffffffffffffffffffffffffffffffffffff1673ffffffffffffffffffffffffffffffffffffffff168152602001908152602001600020805480602002602001604051908101604052809291908181526020016000905b82821015610a2157838290600052602060002090600302016040518060600160405290816000820160009054906101000a900473ffffffffffffffffffffffffffffffffffffffff1673ffffffffffffffffffffffffffffffffffffffff1673ffffffffffffffffffffffffffffffffffffffff1681526020016001820160009054906101000a900473ffffffffffffffffffffffffffffffffffffffff1673ffffffffffffffffffffffffffffffffffffffff1673ffffffffffffffffffffffffffffffffffffffff16815260200160028201548152505081526020019060010190610939565b5050505090506000815167ffffffffffffffff811115610a4457610a43612630565b5b604051908082528060200260200182016040528015610a7d57816020015b610a6a611eb3565b815260200190600190039081610a625790505b50905060005b8251811015610b2b578573ffffffffffffffffffffffffffffffffffffffff16838281518110610ab657610ab561246a565b5b60200260200101516020015173ffffffffffffffffffffffffffffffffffffffff161415610b1857828181518110610af157610af061246a565b5b6020026020010151828281518110610b0c57610b0b61246a565b5b60200260200101819052505b8080610b23906124c8565b915050610a83565b50809350505050610dba565b6000600660008573ffffffffffffffffffffffffffffffffffffffff1673ffffffffffffffffffffffffffffffffffffffff168152602001908152602001600020805480602002602001604051908101604052809291908181526020018280548015610bf857602002820191906000526020600020905b8160009054906101000a900473ffffffffffffffffffffffffffffffffffffffff1673ffffffffffffffffffffffffffffffffffffffff1681526020019060010190808311610bae575b505050505090506000815167ffffffffffffffff811115610c1c57610c1b612630565b5b604051908082528060200260200182016040528015610c5557816020015b610c42611eb3565b815260200190600190039081610c3a5790505b50905060005b8251811015610db257828181518110610c7757610c7661246a565b5b6020026020010151828281518110610c9257610c9161246a565b5b60200260200101516000019073ffffffffffffffffffffffffffffffffffffffff16908173ffffffffffffffffffffffffffffffffffffffff168152505085828281518110610ce457610ce361246a565b5b60200260200101516020019073ffffffffffffffffffffffffffffffffffffffff16908173ffffffffffffffffffffffffffffffffffffffff168152505060076000848381518110610d3957610d3861246a565b5b602002602001015173ffffffffffffffffffffffffffffffffffffffff1673ffffffffffffffffffffffffffffffffffffffff16815260200190815260200160002054828281518110610d8f57610d8e61246a565b5b602002602001015160400181815250508080610daa906124c8565b915050610c5b565b508093505050505b919050565b6000805b600180549050811015610e5e5760018181548110610de457610de361246a565b5b9060005260206000200160009054906101000a900473ffffffffffffffffffffffffffffffffffffffff1673ffffffffffffffffffffffffffffffffffffffff163373ffffffffffffffffffffffffffffffffffffffff161415610e4b5760019150610e5e565b8080610e56906124c8565b915050610dc3565b5080610eaa576000610ea5576040517f08c379a0000000000000000000000000000000000000000000000000000000008152600401610e9c90612594565b60405180910390fd5b610f2f565b600660008373ffffffffffffffffffffffffffffffffffffffff1673ffffffffffffffffffffffffffffffffffffffff1681526020019081526020016000206000610ef59190611f03565b7fffba2f5560c54f3e17c0ea6219ffc960702e123fd40f1cc9bf230d08ec5749178233604051610f2692919061265f565b60405180910390a15b5050565b6000805b600180549050811015610fd25760018181548110610f5857610f5761246a565b5b9060005260206000200160009054906101000a900473ffffffffffffffffffffffffffffffffffffffff1673ffffffffffffffffffffffffffffffffffffffff163373ffffffffffffffffffffffffffffffffffffffff161415610fbf5760019150610fd2565b8080610fca906124c8565b915050610f37565b508061101e576000611019576040517f08c379a000000000000000000000000000000000000000000000000000000000815260040161101090612594565b60405180910390fd5b611185565b6002600180549050101561107257600061106d576040517f08c379a0000000000000000000000000000000000000000000000000000000008152600401611064906126d4565b60405180910390fd5b611184565b60005b600180549050811015611182578273ffffffffffffffffffffffffffffffffffffffff16600182815481106110ad576110ac61246a565b5b9060005260206000200160009054906101000a900473ffffffffffffffffffffffffffffffffffffffff1673ffffffffffffffffffffffffffffffffffffffff16141561116f57600181815481106111085761110761246a565b5b9060005260206000200160006101000a81549073ffffffffffffffffffffffffffffffffffffffff02191690557f6ac01b7aa18a8f6fd542477b7bbab44275bf3d95edf08e9404bb423ef2356da1833360405161116692919061265f565b60405180910390a15b808061117a906124c8565b915050611075565b505b5b5050565b6000805b60018054905081101561122857600181815481106111ae576111ad61246a565b5b9060005260206000200160009054906101000a900473ffffffffffffffffffffffffffffffffffffffff1673ffffffffffffffffffffffffffffffffffffffff163373ffffffffffffffffffffffffffffffffffffffff1614156112155760019150611228565b8080611220906124c8565b91505061118d565b508061127457600061126f576040517f08c379a000000000000000000000000000000000000000000000000000000000815260040161126690612594565b60405180910390fd5b611311565b6001829080600181540180825580915050600190039060005260206000200160009091909190916101000a81548173ffffffffffffffffffffffffffffffffffffffff021916908373ffffffffffffffffffffffffffffffffffffffff1602179055507fbf3f493c772c8c283fd124432c2d0f539ab343faa04258fe88e52912d36b102b823360405161130892919061265f565b60405180910390a15b5050565b6006602052816000526040600020818154811061133157600080fd5b906000526020600020016000915091509054906101000a900473ffffffffffffffffffffffffffffffffffffffff1681565b60046020528060005260406000206000915090505481565b6003818154811061138b57600080fd5b90600052602060002090600402016000915090508060000154908060010160009054906101000a900473ffffffffffffffffffffffffffffffffffffffff16908060020160009054906101000a900473ffffffffffffffffffffffffffffffffffffffff16908060030160009054906101000a900473ffffffffffffffffffffffffffffffffffffffff16905084565b6000805b6001805490508110156114ba57600181815481106114405761143f61246a565b5b9060005260206000200160009054906101000a900473ffffffffffffffffffffffffffffffffffffffff1673ffffffffffffffffffffffffffffffffffffffff163373ffffffffffffffffffffffffffffffffffffffff1614156114a757600191506114ba565b80806114b2906124c8565b91505061141f565b5080611506576000611501576040517f08c379a00000000000000000000000000000000000000000000000000000000081526004016114f890612594565b60405180910390fd5b6115e2565b600660008473ffffffffffffffffffffffffffffffffffffffff1673ffffffffffffffffffffffffffffffffffffffff168152602001908152602001600020829080600181540180825580915050600190039060005260206000200160009091909190916101000a81548173ffffffffffffffffffffffffffffffffffffffff021916908373ffffffffffffffffffffffffffffffffffffffff1602179055507f2051d1698438e909aa08ac2773e9a4b87c1c24ae064793b714e81e61896989488383336040516115d9939291906125f9565b60405180910390a15b505050565b6000805b600660008473ffffffffffffffffffffffffffffffffffffffff1673ffffffffffffffffffffffffffffffffffffffff16815260200190815260200160002080549050811015611700578373ffffffffffffffffffffffffffffffffffffffff16600660008573ffffffffffffffffffffffffffffffffffffffff1673ffffffffffffffffffffffffffffffffffffffff168152602001908152602001600020828154811061169d5761169c61246a565b5b9060005260206000200160009054906101000a900473ffffffffffffffffffffffffffffffffffffffff1673ffffffffffffffffffffffffffffffffffffffff1614156116ed5760019150611700565b80806116f8906124c8565b9150506115eb565b5080611746577f688a3922fdb7052949427bceb2103ae038ecb93352d1d39cab3dde2251218455838333604051611739939291906125f9565b60405180910390a1611acb565b6000805b600560003373ffffffffffffffffffffffffffffffffffffffff1673ffffffffffffffffffffffffffffffffffffffff16815260200190815260200160002080549050811015611866578473ffffffffffffffffffffffffffffffffffffffff16600560003373ffffffffffffffffffffffffffffffffffffffff1673ffffffffffffffffffffffffffffffffffffffff16815260200190815260200160002082815481106117fc576117fb61246a565b5b906000526020600020906003020160000160009054906101000a900473ffffffffffffffffffffffffffffffffffffffff1673ffffffffffffffffffffffffffffffffffffffff1614156118535760019150611866565b808061185e906124c8565b91505061174a565b508015611a8b577fbbf285ab57a06f66efef76aacce8608661908779f200e8087ac79f32c17504213385856040516118a0939291906125f9565b60405180910390a16000848433426040516020016118c1949392919061275d565b604051602081830303815290604052805190602001209050600360405180608001604052808381526020013373ffffffffffffffffffffffffffffffffffffffff1681526020018773ffffffffffffffffffffffffffffffffffffffff1681526020018673ffffffffffffffffffffffffffffffffffffffff1681525090806001815401808255809150506001900390600052602060002090600402016000909190919091506000820151816000015560208201518160010160006101000a81548173ffffffffffffffffffffffffffffffffffffffff021916908373ffffffffffffffffffffffffffffffffffffffff16021790555060408201518160020160006101000a81548173ffffffffffffffffffffffffffffffffffffffff021916908373ffffffffffffffffffffffffffffffffffffffff16021790555060608201518160030160006101000a81548173ffffffffffffffffffffffffffffffffffffffff021916908373ffffffffffffffffffffffffffffffffffffffff16021790555050507f066cde511de645a3d03ed04069128a6c16fc5bf2d076a748a2acd1e205d3390f81338787604051611a7d94939291906123a5565b60405180910390a150611ac9565b80611ac8577fedc2b9184e4f83d4cc9079ff886f15cd4ebc064df34bb7414aa697c2d5812a5733604051611abf9190612342565b60405180910390a15b5b505b505050565b60076020528060005260406000206000915090505481565b6000805b600180549050811015611b875760018181548110611b0d57611b0c61246a565b5b9060005260206000200160009054906101000a900473ffffffffffffffffffffffffffffffffffffffff1673ffffffffffffffffffffffffffffffffffffffff163373ffffffffffffffffffffffffffffffffffffffff161415611b745760019150611b87565b8080611b7f906124c8565b915050611aec565b5080611bd3576000611bce576040517f08c379a0000000000000000000000000000000000000000000000000000000008152600401611bc590612594565b60405180910390fd5b611c58565b600560008373ffffffffffffffffffffffffffffffffffffffff1673ffffffffffffffffffffffffffffffffffffffff1681526020019081526020016000206000611c1e9190611f24565b7fd583bac0996795f46c61a719ca6954d32d592a449d37914310382ab0d2f645568233604051611c4f92919061265f565b60405180910390a15b5050565b6000805b600180549050811015611cfb5760018181548110611c8157611c8061246a565b5b9060005260206000200160009054906101000a900473ffffffffffffffffffffffffffffffffffffffff1673ffffffffffffffffffffffffffffffffffffffff163373ffffffffffffffffffffffffffffffffffffffff161415611ce85760019150611cfb565b8080611cf3906124c8565b915050611c60565b5080611d47576000611d42576040517f08c379a0000000000000000000000000000000000000000000000000000000008152600401611d3990612594565b60405180910390fd5b611eae565b6001839080600181540180825580915050600190039060005260206000200160009091909190916101000a81548173ffffffffffffffffffffffffffffffffffffffff021916908373ffffffffffffffffffffffffffffffffffffffff160217905550611db2611f48565b83816000019073ffffffffffffffffffffffffffffffffffffffff16908173ffffffffffffffffffffffffffffffffffffffff168152505082816020018181525050600281908060018154018082558091505060019003906000526020600020906002020160009091909190915060008201518160000160006101000a81548173ffffffffffffffffffffffffffffffffffffffff021916908373ffffffffffffffffffffffffffffffffffffffff1602179055506020820151816001015550507fbf3f493c772c8c283fd124432c2d0f539ab343faa04258fe88e52912d36b102b8433604051611ea492919061265f565b60405180910390a1505b505050565b6040518060600160405280600073ffffffffffffffffffffffffffffffffffffffff168152602001600073ffffffffffffffffffffffffffffffffffffffff168152602001600080191681525090565b5080546000825590600052602060002090810190611f219190611f7b565b50565b5080546000825560030290600052602060002090810190611f459190611f98565b50565b6040518060400160405280600073ffffffffffffffffffffffffffffffffffffffff168152602001600080191681525090565b5b80821115611f94576000816000905550600101611f7c565b5090565b5b8082111561200157600080820160006101000a81549073ffffffffffffffffffffffffffffffffffffffff02191690556001820160006101000a81549073ffffffffffffffffffffffffffffffffffffffff0219169055600282016000905550600301611f99565b5090565b600080fd5b600073ffffffffffffffffffffffffffffffffffffffff82169050919050565b60006120358261200a565b9050919050565b6120458161202a565b811461205057600080fd5b50565b6000813590506120628161203c565b92915050565b6000819050919050565b61207b81612068565b811461208657600080fd5b50565b60008135905061209881612072565b92915050565b600080604083850312156120b5576120b4612005565b5b60006120c385828601612053565b92505060206120d485828601612089565b9150509250929050565b6120e78161202a565b82525050565b6000819050919050565b612100816120ed565b82525050565b600060608201905061211b60008301866120de565b61212860208301856120de565b61213560408301846120f7565b949350505050565b612146816120ed565b811461215157600080fd5b50565b6000813590506121638161213d565b92915050565b600080600080600060a0868803121561218557612184612005565b5b600061219388828901612053565b95505060206121a488828901612053565b94505060406121b588828901612053565b93505060606121c688828901612154565b92505060806121d788828901612154565b9150509295509295909350565b6000602082840312156121fa576121f9612005565b5b600061220884828501612053565b91505092915050565b600081519050919050565b600082825260208201905092915050565b6000819050602082019050919050565b6122468161202a565b82525050565b612255816120ed565b82525050565b606082016000820151612271600085018261223d565b506020820151612284602085018261223d565b506040820151612297604085018261224c565b50505050565b60006122a9838361225b565b60608301905092915050565b6000602082019050919050565b60006122cd82612211565b6122d7818561221c565b93506122e28361222d565b8060005b838110156123135781516122fa888261229d565b9750612305836122b5565b9250506001810190506122e6565b5085935050505092915050565b6000602082019050818103600083015261233a81846122c2565b905092915050565b600060208201905061235760008301846120de565b92915050565b600060208201905061237260008301846120f7565b92915050565b60006020828403121561238e5761238d612005565b5b600061239c84828501612089565b91505092915050565b60006080820190506123ba60008301876120f7565b6123c760208301866120de565b6123d460408301856120de565b6123e160608301846120de565b95945050505050565b6000806040838503121561240157612400612005565b5b600061240f85828601612053565b925050602061242085828601612053565b9150509250929050565b6000806040838503121561244157612440612005565b5b600061244f85828601612053565b925050602061246085828601612154565b9150509250929050565b7f4e487b7100000000000000000000000000000000000000000000000000000000600052603260045260246000fd5b7f4e487b7100000000000000000000000000000000000000000000000000000000600052601160045260246000fd5b60006124d382612068565b91507fffffffffffffffffffffffffffffffffffffffffffffffffffffffffffffffff82141561250657612505612499565b5b600182019050919050565b600082825260208201905092915050565b7f4f6e6c792061646d696e732063616e206d6f64696679207468697320636f6e7460008201527f7261637400000000000000000000000000000000000000000000000000000000602082015250565b600061257e602483612511565b915061258982612522565b604082019050919050565b600060208201905081810360008301526125ad81612571565b9050919050565b60006080820190506125c960008301876120de565b6125d660208301866120de565b6125e360408301856120de565b6125f060608301846120de565b95945050505050565b600060608201905061260e60008301866120de565b61261b60208301856120de565b61262860408301846120de565b949350505050565b7f4e487b7100000000000000000000000000000000000000000000000000000000600052604160045260246000fd5b600060408201905061267460008301856120de565b61268160208301846120de565b9392505050565b7f596f752063616e27742064656c65746520746865206c6173742061646d696e00600082015250565b60006126be601f83612511565b91506126c982612688565b602082019050919050565b600060208201905081810360008301526126ed816126b1565b9050919050565b60008160601b9050919050565b600061270c826126f4565b9050919050565b600061271e82612701565b9050919050565b6127366127318261202a565b612713565b82525050565b6000819050919050565b61275761275282612068565b61273c565b82525050565b60006127698287612725565b6014820191506127798286612725565b6014820191506127898285612725565b6014820191506127998284612746565b6020820191508190509594505050505056fea26469706673582212209e4d7938cdb8eaf2c464e82819b4cffc4995707636581a9ccf178b53785d7ef764736f6c63430008090033",
  "linkReferences": {},
  "deployedLinkReferences": {}
}